:100000000C944A000C9469000C9469000C946900EB
:100010000C9469000C9495040C9469000C9469008C
:100020000C9469000C9469000C9469000C946900AC
:100030000C9469000C9469000C9469000C9469009C
:100040000C947E040C9469000C9469000C94690073
:100050000C9469000C9469000C9469000C9469007C
:100060000C9469000C9469000C9469000C9469006C
:100070000C9469000C9469000C9469000C9469005C
:100080000C9469000C9469000C9469000C9469004C
:100090000C94690011241FBECFEFD0E1DEBFCDBFAD
:1000A00012E0A0E0B1E0E6E2FBE100E00BBF02C03D
:1000B00007900D92A433B107D9F712E0A4E3B2E0A0
:1000C00001C01D92AD34B107E1F70E94FB0B0C9407
:1000D000910D0C94000020E030E008C00F920F90CA
:1000E0000F920F900F920F902F5F3F4F28173907F5
:1000F000A9F708950F931F93CF93DF938C01C0E06E
:10010000D0E005C088EE93E00E946B002196C017F6
:10011000D107C1F7DF91CF911F910F910895A29A56
:1001200084E690E00E946B00A298089588E290E037
:100130000E947A0088E388B90E948F0088E290E0EC
:100140000E946B008CE088B988E290E00E946B000E
:100150000E948F0081E088B982E090E00E947A00DE
:100160000E948F0086E088B90E948F000895A09AAF
:10017000A19888B90E948F000895A098A19888B985
:100180000E948F000895A098A198662311F48058CA
:1001900003C0613011F4805488B90E948F00089523
:1001A0000F931F93CF93DF9300D0CDB7DEB7498372
:1001B0005A830E94C3004981042F5A81152F02C01F
:1001C0000E94B700F80181918F018823C9F70F9031
:1001D0000F90DF91CF911F910F9108959091D800CA
:1001E00091609093D800833089F0843028F4813076
:1001F00051F08230D1F411C0853061F0853040F08B
:10020000863099F409C01092E20009C086E005C06A
:1002100088E003C08EE001C082E18093E2008CE0C0
:100220008093E30087E38093E40080E0982F929529
:10023000907F9093ED001092EF001092EE001092DC
:10024000F3001092F2001092F1001092F000109260
:10025000F7001092F6001092F5001092F400109240
:10026000FA001092FA001092FA001092FA0010921E
:10027000FA001092FA001092FA001092FA008F5FC2
:100280008F30A1F61092DB001092DF001092DE009A
:100290001092E1001092E0008091D800826080937B
:1002A000D8008091D90082FFFCCF08959091D800AA
:1002B00091609093D8008330C1F0843028F481306D
:1002C00051F0823039F50EC08530C9F0853078F0B4
:1002D000863001F516C01092E20084E08093E300BE
:1002E00083E116C01092E2000FC082E00BC082E0F2
:1002F0008093E2008EE08093E3008BE409C086E007
:1003000001C088E08093E2008CE08093E30087E303
:100310008093E40080E0982F9295907F9093ED0079
:100320001092EF001092EE001092F3001092F20083
:100330001092F1001092F0001092F7001092F60067
:100340001092F5001092F4001092FA001092FA0048
:100350001092FA001092FA001092FA001092FA002D
:100360001092FA001092FA008F5F8F30A1F610926F
:10037000DB001092DF001092DE001092E10010927C
:10038000E00080E28093D8008091D8008260809362
:10039000D8008091D90082FFFCCF08950F931F935E
:1003A000FB0100811181228133818295807F8093BE
:1003B000ED001092EE001092EF0085818823A1F4E9
:1003C000D901C80153E0B695A795979587955A9599
:1003D000D1F78093F3000295000F007E0093F200A6
:1003E0008091EF008F7E29C0D901C80155E1B695F3
:1003F000A795979587955A95D1F78093F300D901E2
:10040000C8016DE0B695A795979587956A95D1F740
:100410008093F200D901C80175E0B695A79597952C
:1004200087957A95D1F78093F100000F000F000FA8
:100430000093F0008091EF0080618093EF00809145
:10044000EF009681892B8093EF008091F00044703B
:10045000482B4093F0008091F0008D7F8093F00056
:100460008091F0008E7F8093F00080E009C0DF0172
:10047000A80FB11D17969C9117979093FA008F5F64
:1004800096818917A0F38091EF0080648093EF003C
:100490008091EE0086FFFCCF8091EE008F7B8093F1
:1004A000EE0081E01F910F910895CF92DF92EF92BD
:1004B000FF920F931F93FB018295807F8093ED0045
:1004C0008091EE0085FFFCCF8091EF0084FD1BC082
:1004D00015828091F30090E0A0E0B0E0BA2FA92F40
:1004E000982F88274091F20050E060E070E0842B64
:1004F000952BA62BB72B35E0B695A79597958795A5
:100500003A95D1F735C081E085838091F30090E082
:10051000A0E0B0E0B82FAA2799278827C090F20062
:100520004091F1000091F000DD24EE24FF247601DB
:10053000DD24CC248C299D29AE29BF2910E020E0A0
:1005400030E0802B912BA22BB32B50E060E070E0C9
:10055000762F652F542F4427842B952BA62BB72B52
:10056000689412F8B695A795979587951694D1F744
:1005700080839183A283B3838091F000847084830D
:100580008091EF008F70868340E009C08091FA006F
:100590002E0F3F1FD90117968C9317974F5F242F6B
:1005A00030E08091EF0090E08F709070281739074D
:1005B0006CF31092EE008091EF0080688093EF0062
:1005C0008091EE008F7D8093EE0081E01F910F916E
:1005D000FF90EF90DF90CF900895AF92CF92DF928F
:1005E000EF92FF920F938295807F8093ED0010929F
:1005F000EE00DB01CA01222329F5F3E0B695A795A9
:1006000097958795FA95D1F78093F3004295440F1B
:10061000407E4093F200D701C60123E0B695A7952E
:10062000979587952A95D1F78093F700C294CC0CC3
:1006300030EEC322C092F6001092F4008091EF00D9
:100640008F7E4DC0E5E1B695A79597958795EA957C
:10065000D1F78093F300DB01CA01FDE0B695A795C1
:1006600097958795FA95D1F78093F200DB01CA013F
:1006700025E0B695A795979587952A95D1F780930C
:10068000F100440F440F440F4093F000D701C6011E
:1006900035E1B695A795979587953A95D1F78093CB
:1006A000F700D701C6014DE0B695A79597958795B8
:1006B0004A95D1F78093F600D701C601E5E0B695DB
:1006C000A79597958795EA95D1F78093F500CC0C7F
:1006D000CC0CCC0CC092F4008091EF008061809330
:1006E000EF008091EF000F70082B0093EF009091C6
:1006F000F4008A2D8770892B8093F4008091EF009D
:1007000080688093EF000F91FF90EF90DF90CF9083
:10071000AF900895AF92CF92DF92EF92FF920F9336
:10072000382F8295807F8093ED001092EE008091AB
:10073000EF0021FF02C0806201C08F7D8093EF0037
:10074000DB01CA0120FD25C023E0B695A79597954A
:1007500087952A95D1F78093F3004295440F407E08
:100760004093F200D701C60143E0B695A79597954F
:1007700087954A95D1F78093F700C294CC0C50EE40
:10078000C522C092F6001092F4008091EF008F7E97
:100790004DC0E5E1B695A79597958795EA95D1F770
:1007A0008093F300DB01CA01FDE0B695A79597950C
:1007B0008795FA95D1F78093F200DB01CA0125E015
:1007C000B695A795979587952A95D1F78093F100CF
:1007D000440F440F440F4093F000D701C60145E198
:1007E000B695A795979587954A95D1F78093F70089
:1007F000D701C601EDE0B695A79597958795EA953F
:10080000D1F78093F600D701C601F5E0B695A7951C
:1008100097958795FA95D1F78093F500CC0CCC0C81
:10082000CC0CC092F4008091EF0080618093EF00C7
:100830008091EF000F70082B0093EF009091F4006F
:100840008A2D8770892B8093F4008091DB00806A69
:100850008093DB00383050F481E090E002C0880FD4
:10086000991F3A95E2F78093DE000DC0232F30E008
:100870002850304081E090E002C0880F991F2A95EF
:10088000E2F78093DF008091EF0080688093EF00B3
:1008900078940F91FF90EF90DF90CF90AF900895F4
:1008A0008DB380678DBBEAE6F0E080818F63808343
:1008B000089584B5886484BD84B5826084BD16BC07
:1008C00083E187BD82E080936E00089589E880937C
:1008D000900083E08093910008958AEF90E09093D8
:1008E00099008093980084E690E090939D00809317
:1008F0009C0088EE93E00E947A0008951F920F9268
:100900000FB60F9211248F939F938091380290918C
:100910003902019690933902809338029F918F910A
:100920000F900FBE0F901F9018951F920F920FB649
:100930000F9211242F933F938F939F93209138020E
:100940003091390280916A0090E083709070009736
:1009500049F080916A0010926A0010923902109258
:10096000380209C080916A00836080936A003093E6
:100970003502209334029F918F913F912F910F90D8
:100980000FBE0F901F9018958FEF87B988B983BB62
:1009900088E28DB90895CF92DF92EF92FF920F9384
:1009A0001F936B017C0120E030E040E05FE40E9497
:1009B000640887FD11C0C701B60120E030E040E0C7
:1009C0005FE40E9480060E943D098B019C0100505B
:1009D00010402040304806C0C701B6010E943D09C2
:1009E0008B019C01B801C9011F910F91FF90EF90FD
:1009F000DF90CF900895A0E0B0E0E1E0F5E00C9446
:100A00005C0DEC014B01FA018881823008F43EC193
:100A1000DB019C91923008F436C1843059F4943053
:100A200009F034C1998111968C911197981709F0AA
:100A300027C12CC1943009F426C19230A9F4823028
:100A400009F024C1CE0128E0DC010D90CD01DA01CE
:100A50000D92AD012150C1F7D40111968C911197DF
:100A600099818923818311C1823009F40CC1AA8044
:100A7000BB80DB0112964D915C911397CC80DD8099
:100A8000EE80FF8014960D911D912D913C9117974A
:100A9000C501841B950BDC0197FF04C0AA27BB2767
:100AA000A81BB90BA032B1050CF067C018161906C7
:100AB00084F5280139010A2E04C07694679457946E
:100AC00047940A94D2F741E050E060E070E004C03F
:100AD000440F551F661F771FAA95D2F7415050400B
:100AE00060407040402351236223732381E090E0F3
:100AF000A0E0B0E0411551056105710519F480E0F1
:100B000090E0DC018C019D01042915292629372953
:100B10003FC00097E9F1AA0EBB1E260137010A2E3D
:100B200004C076946794579447940A94D2F741E0AE
:100B300050E060E070E004C0440F551F661F771F4F
:100B4000AA95D2F741505040604070404C215D2141
:100B50006E217F2181E090E0A0E0B0E041155105D9
:100B60006105710519F480E090E0DC016C017D0104
:100B7000C428D528E628F7280BC04A155B0524F4BD
:100B800000E010E0980104C05A01CC24DD24760175
:100B90008981D40111969C911197891709F445C058
:100BA000882329F00C191D092E093F0908C0D70117
:100BB000C601801B910BA20BB30B8C019D0137FD6D
:100BC00004C01182B382A2820BC081E08183B38210
:100BD000A28230952095109501951F4F2F4F3F4FC2
:100BE00004831583268337830DC0880F991FAA1F9E
:100BF000BB1F84839583A683B783828193810197EA
:100C00009383828384819581A681B781AC01BD01E4
:100C100041505040604070404F3F2FEF52072FEF40
:100C200062072FE3720708F30BC08183B382A282AD
:100C30000C0D1D1D2E1D3F1D048315832683378338
:100C400083E08083448155816681778177FF1DC071
:100C5000DB01CA0181709070A070B07076956795C5
:100C600057954795842B952BA62BB72B848395837B
:100C7000A683B7838281938101969383828305C083
:100C8000CCE2D1E003C0E40101C0EF01CE01CDB759
:100C9000DEB7E0E10C94780DA0E2B0E0E2E5F6E02A
:100CA0000C946A0DDC01CB018D839E83AF83B887E2
:100CB00029833A834B835C83CE010596BE01675E30
:100CC0007F4F0E94350BCE010196BE016F5E7F4FB4
:100CD0000E94350BCE014996BE016F5E7F4FAE017B
:100CE000475F5F4F0E94FB040E945E0A462F572F0A
:100CF000682F792FCB01BA01A096E2E00C94860D03
:100D0000A0E2B0E0E6E8F6E00C946A0DDC01CB016D
:100D10008D839E83AF83B88729833A834B835C831B
:100D2000CE010596BE01675E7F4F0E94350BCE0156
:100D30000196BE016F5E7F4F0E94350B8A8991E05C
:100D400089278A8BCE014996BE016F5E7F4FAE0127
:100D5000475F5F4F0E94FB040E945E0A462F572F99
:100D6000682F792FCB01BA01A096E2E00C94860D92
:100D7000A0E2B0E0EEEBF6E00C945C0DDC01CB0100
:100D80008D839E83AF83B88729833A834B835C83AB
:100D9000CE010596BE01675E7F4F0E94350BCE01E6
:100DA0000196BE016F5E7F4F0E94350B998D923088
:100DB00078F089898230C0F0943019F4823041F49F
:100DC000CAC0843019F4923079F4C5C0923051F41D
:100DD00081E02A8D9A89291709F480E08A8FCE0153
:100DE0004996BBC0823051F481E02A8D9A89291737
:100DF00009F480E08A8BCE014196AFC04D8C5E8CA9
:100E00006F8C78A00D891E892F89388DE0E2F0E083
:100E100040E050E0BA01882499245401CC24DD2418
:100E20007601C201817090700097D1F0C00ED11E82
:100E3000E21EF31EDB01CA01880D991DAA1DBB1D10
:100E400041E050E060E070E0C016D106E206F30633
:100E500018F040E050E0BA01480F591F6A1F7B1F8D
:100E6000880C991CAA1CBB1C37FF08C081E090E0CD
:100E7000A0E0B0E0882A992AAA2ABB2A000F111FF5
:100E8000221F331F7694679457944794319749F6FD
:100E90008B8D9C8D2B893C89820F931F02969C879A
:100EA0008B8781E02A8D9A89291709F480E08A8747
:100EB0002B853C8517C0CA0181709070009761F046
:100EC000F694E794D794C79480E090E0A0E0B0E86F
:100ED000C82AD92AEA2AFB2A769567955795479515
:100EE0002F5F3F4F77FDE7CFC9010BC0440F551F60
:100EF000661F771FF7FC4160CC0CDD1CEE1CFF1C4D
:100F000001974030A0E05A07A0E06A07A0E47A0702
:100F100068F38B879C87DB01CA018F779070A07084
:100F2000B07080349105A105B10561F447FD0AC098
:100F3000C114D104E104F10429F0405C5F4F6F4F0C
:100F40007F4F40784D875E876F87788B83E08987F6
:100F5000CE01099602C08CE291E00E945E0A462F03
:100F6000572F682F792FCB01BA01A096E0E10C949E
:100F7000780DA8E1B0E0EFEBF7E00C94640DDC0134
:100F8000CB018D839E83AF83B88729833A834B83BC
:100F90005C83CE010596BE016F5E7F4F0E94350BCC
:100FA000CE010196BE01675F7F4F0E94350B998984
:100FB000923008F475C08985823008F474C02A899B
:100FC0003A8523272A8B943011F0923021F4981718
:100FD00009F066C06BC0843039F41D8A1E8A1F8AEE
:100FE000188E1C8A1B8A5CC0823019F484E0898BBD
:100FF00057C02B893C898B859C85281B390B3C8BE2
:101000002B8B8D899E89AF89B88DCD84DE84EF844A
:10101000F8888C159D05AE05BF0540F4880F991F13
:10102000AA1FBB1F215030403C8B2B8BEFE1F0E01F
:1010300000E010E020E030E440E050E0BA018C1520
:101040009D05AE05BF0540F0402B512B622B732B45
:101050008C199D09AE09BF093695279517950795F7
:10106000880F991FAA1FBB1F319749F78A019B015F
:101070000F77107020703070003411052105310594
:1010800059F447FD09C00097A105B10529F0405C5E
:101090005F4F6F4F7F4F40784D8B5E8B6F8B788F9C
:1010A000CE01419605C0CE01099602C08CE291E0C6
:1010B0000E945E0A462F572F682F792FCB01BA0165
:1010C0006896E8E00C94800DA8E1B0E0EAE6F8E06C
:1010D0000C946A0DDC01CB018D839E83AF83B887AE
:1010E00029833A834B835C83CE010596BE016F5EF4
:1010F0007F4F0E94350BCE010196BE01675F7F4F87
:101100000E94350B8989823058F08985823040F001
:10111000CE014196BE01675F7F4F0E949E0B01C0CA
:101120008FEF6896E2E00C94860DA8E1B0E0EBE961
:10113000F8E00C946A0DDC01CB018D839E83AF83B4
:10114000B88729833A834B835C83CE010596BE0121
:101150006F5E7F4F0E94350BCE010196BE01675F27
:101160007F4F0E94350B8989823058F08985823003
:1011700040F0CE014196BE01675F7F4F0E949E0BFB
:1011800001C081E06896E2E00C94860DCF92DF9278
:10119000EF92FF92CF93DF93CDB7DEB728970FB6CC
:1011A000F894DEBF0FBECDBF6B017C0183E0898365
:1011B000D701C6018827B7FD83959927AA27BB27A2
:1011C000282F8A83C114D104E104F10419F482E0C8
:1011D000898335C08EE190E09C838B83222389F044
:1011E00080E0C81680E0D80680E0E80680E8F806CF
:1011F00059F1F094E094D094C094C11CD11CE11C2E
:10120000F11CCD82DE82EF82F886C701B6010E9412
:101210000B0A01971816190694F4082E04C0CC0C7A
:10122000DD1CEE1CFF1C0A94D2F7CD82DE82EF8219
:10123000F8862EE130E0281B390B3C832B83CE014E
:1012400001960E945E0A04C060E070E080E09FECBE
:10125000382F292F862F972FA32FB22FBC01CD0116
:1012600028960FB6F894DEBF0FBECDBFDF91CF91A9
:10127000FF90EF90DF90CF900895ACE0B0E0E3E412
:10128000F9E00C94680DDC01CB0189839A83AB8370
:10129000BC83CE010196BE016B5F7F4F0E94350B70
:1012A0008D81823069F1823058F1843039F02F819C
:1012B000388537FD25C02F31310544F08E818823D4
:1012C00019F100E010E020E030E822C08EE190E06B
:1012D000821B930B09851A852B853C8504C03695A6
:1012E0002795179507958A95D2F78E81882381F0E7
:1012F00030952095109501951F4F2F4F3F4F08C0F7
:1013000000E010E0980104C00FEF1FEF2FEF3FE760
:10131000B801C9012C96E4E00C94840DA8E0B0E07B
:10132000E4E9F9E00C94640D6B017C011A8261150B
:1013300071058105910519F482E089835EC083E01F
:1013400089830EE110E01C830B83CD82DE82EF8265
:10135000F886C701B6010E940B0A9C01215030405B
:1013600037FF38C0EE27FF27E21BF30B81E090E048
:10137000A0E0B0E00E2E04C0880F991FAA1FBB1F6B
:101380000A94D2F70197A109B1098C219D21AE21C0
:10139000BF2141E050E060E070E00097A105B10599
:1013A00019F440E050E0BA0104C0F694E794D794F1
:1013B000C794EA95D2F7C42AD52AE62AF72ACD821D
:1013C000DE82EF82F8868EE190E0821B930B9C8395
:1013D0008B8313C02115310581F0022E04C0CC0C83
:1013E000DD1CEE1CFF1C0A94D2F7CD82DE82EF8258
:1013F000F886021B130B1C830B83CE0101960E94FF
:101400005E0A462F572F682F792FCB01BA012896F5
:10141000E8E00C94800DCF92DF92EF92FF920F9351
:101420001F938B019C01003080E0180781E02807A2
:1014300080E0380750F40F3F11052105310509F010
:1014400088F480E090E0DC0116C00030E0E01E0788
:10145000E0E02E07E1E03E0750F480E190E0A0E0FC
:10146000B0E009C088E090E0A0E0B0E004C088E10E
:1014700090E0A0E0B0E040E250E060E070E0481BA7
:10148000590B6A0B7B0B6801790104C0F694E79451
:10149000D794C7948A95D2F7D701C6018C5C9E4F2A
:1014A000FC018081481B510961097109CA011F9122
:1014B0000F91FF90EF90DF90CF900895CF92DF9241
:1014C000EF92FF920F931F93DC0114964D915D9163
:1014D0006D917C9117971196EC9111978C918230B8
:1014E00020F460618FEF90E0A5C0843009F49DC0C6
:1014F000823009F494C0411551056105710509F464
:1015000091C012968D919C9113972FEF823892077C
:101510000CF059C022E83FEF281B390B2A31310566
:1015200064F56A017B01022E04C0F694E794D79417
:10153000C7940A94D2F781E090E0A0E0B0E004C044
:10154000880F991FAA1FBB1F2A95D2F70197A109DF
:10155000B10984239523A623B72341E050E060E03E
:1015600070E00097A105B10519F440E050E0BA0120
:101570004C295D296E297F2903C040E050E0BA0163
:10158000DB01CA018F779070A070B0708034910534
:10159000A105B10539F447FF09C0405C5F4F6F4FAB
:1015A0007F4F04C0415C5F4F6F4F7F4F81E090E001
:1015B000403020E0520720E0620720E4720738F54F
:1015C00080E090E024C0803891057CF58A019B0181
:1015D0000F7710702070307000341105210531052F
:1015E00039F447FF09C0405C5F4F6F4F7F4F04C025
:1015F000415C5F4F6F4F7F4F77FD03C081589F4F16
:1016000006C0769567955795479580589F4F97E008
:1016100076956795579547959A95D1F70BC080E0D9
:1016200090E005C080E090E005C08FEF90E040E0E2
:1016300050E0BA01982F979599279795A62FAF77E5
:10164000E795EE27E79586953A2F392B282F2E2BF5
:10165000842F952FA32FB22FBC01CD011F910F9185
:10166000FF90EF90DF90CF900895DC01FB014C914B
:1016700011965C91119712968C911297682F6F7743
:1016800070E0982F991F9927991F13962C91139703
:10169000822F880F892B90E0221F2227221F21836F
:1016A000009739F5411551056105710511F482E086
:1016B00029C082E89FEF9383828327E0440F551F60
:1016C000661F771F2A95D1F783E0808309C0440FF6
:1016D000551F661F771F82819381019793838283B1
:1016E000403080E0580780E0680780E4780778F3AE
:1016F00020C08F3F910579F44115510561057105B1
:1017000019F484E08083089564FF03C081E080833E
:1017100010C010820EC08F5790409383828383E065
:10172000808387E0440F551F661F771F8A95D1F786
:10173000706444835583668377830895CF93FC0157
:10174000DB019081923008F44CC08C91823008F417
:1017500048C0943069F42181843039F411968C9119
:10176000119790E0821B910944C02223D1F13FC020
:10177000843021F0923041F48230B1F111968C9195
:1017800011978823A1F12DC0C181823001F11196FA
:101790008C911197C817D9F48281938112962D915B
:1017A0003C9113972817390794F082179307BCF0E0
:1017B000448155816681778114968D919D910D901C
:1017C000BC91A02D84179507A607B70718F4CC2362
:1017D00041F00DC0481759076A077B0728F4CC234E
:1017E00031F081E090E005C080E090E002C08FEF32
:1017F0009FEFCF9108950E94C4040E9450040E945C
:1018000059040E9466040E94960081E00E94BD0077
:1018100082E390E00E947A0080E060E040E051E0E6
:101820000E94D00080E061E040E151E00E94D000E1
:101830008EE061E04AE151E00E94D00088EC90E047
:101840000E947A0085E00E94EE0084E040E050E0D3
:10185000BA0121E008E0CC24DD247601AA240E940C
:10186000ED02A1E0CA2ED12CB8EE8B2EB3E09B2E58
:10187000F89474986C9A84EF91E00E946B00749ACB
:1018800085E090E00E946B00749884E690E00E94EE
:101890006B006C9884E690E00E946B0078946091F5
:1018A00034027091350280E090E00E948E092CEAAB
:1018B00035EC47E257E30E94B80620E030E040E014
:1018C0005FE30E94B80620E030E44DEA53E40E9452
:1018D000B80620E030E04AE754E40E94B806EB0185
:1018E000182F092F80913A0290913B02009799F4AA
:1018F00098018C2F9D2FA32FB22FBC01CD0120E08A
:1019000030E040E751E40E94950887FF04C0D09280
:101910003D02C0923C0280913C0290913D02813098
:10192000910511F40E946D0483E06DE171E040E0E7
:101930000E94CE0184E06EE372E00E945502809125
:10194000450290E090933B0280933A0281309105EA
:1019500021F410923D0210923C0280913C0280934F
:10196000240198018C2F9D2FA32FB02FBC01CD01F6
:1019700020E030E04AE754E40E94B9070E94CB041B
:10198000E62E862F90E0889DB001899D700D989D70
:10199000700D1124882777FD8095982F0E94C60826
:1019A0009B01AC01B8018C2F9D2FA72FB02FBC013C
:1019B000CD010E948006EB01182F092F9801862F78
:1019C0009D2FA32FB22FBC01CD0120E030E048ECC9
:1019D00052E40E94B9070E94CB04F62E84E6689F69
:1019E000B0011124882777FD8095982F0E94C608A2
:1019F0009B01AC01B8018C2F9D2FA72FB62FBC01E6
:101A0000CD010E948006EB01182F092F9801862F27
:101A10009D2FA32FB22FBC01CD0120E030E040E28A
:101A200051E40E94B9070E94CB04B62E8AE061E01F
:101A30000E94C3008E2D805D0E94B7008BE061E0A4
:101A40000E94C3008F2D805D0E94B7008CE061E092
:101A50000E94C3008B2D805D0E94B7008DE061E085
:101A60000E94C3008B2D90E0BC01660F771FF3E04E
:101A7000880F991FFA95E1F7680F791F882777FD7E
:101A80008095982F0E94C6089B01AC01B8018C2F4D
:101A90009D2FA72FB62FBC01CD010E9480060E946A
:101AA000CB04862F805D0E94B70084E690E00E9400
:101AB0007A00DECE2F923F924F925F926F927F928A
:101AC0008F929F92AF92BF92CF92DF92EF92FF924E
:101AD0000F931F93CF93DF93CDB7DEB7CA1BDB0BFA
:101AE0000FB6F894DEBF0FBECDBF09942A8839889F
:101AF00048885F846E847D848C849B84AA84B984A6
:101B0000C884DF80EE80FD800C811B81AA81B981B1
:101B1000CE0FD11D0FB6F894DEBF0FBECDBFED01C5
:061B20000895F894FFCFC8
:101B2600414A4F55554E49562053657269616C00BE
:101B360044697374616E63653A006D6D000300005D
:101B46000000010800000000000000000000000086
:101B5600000000000001020203030303040404045E
:101B66000404040405050505050505050505050523
:101B76000505050506060606060606060606060603
:101B860006060606060606060606060606060606EF
:101B960006060606070707070707070707070707D3
:101BA60007070707070707070707070707070707BF
:101BB60007070707070707070707070707070707AF
:101BC600070707070707070707070707070707079F
:101BD6000707070708080808080808080808080883
:101BE600080808080808080808080808080808086F
:101BF600080808080808080808080808080808085F
:101C0600080808080808080808080808080808084E
:101C1600080808080808080808080808080808083E
:101C2600080808080808080808080808080808082E
:101C3600080808080808080808080808080808081E
:101C4600080808080808080808080808080808080E
:041C5600080808086A
:00000001FF
