:100000000C944A000C9469000C9469000C946900EB
:100010000C9469000C9469000C9469000C946900BC
:100020000C9469000C9469000C9469000C946900AC
:100030000C9469000C9469000C9469000C9469009C
:100040000C9469000C9469000C9469000C9469008C
:100050000C9469000C9469000C9469000C9469007C
:100060000C9469000C9479040C9469000C94690058
:100070000C9469000C9469000C9469000C9469005C
:100080000C9469000C9469000C9469000C9469004C
:100090000C94690011241FBECFEFD0E1DEBFCDBFAD
:1000A00011E0A0E0B1E0EAE8F1E100E00BBF02C03E
:1000B00007900D92A231B107D9F711E0A2E1B1E0AA
:1000C00001C01D92AB35B107E1F70E94D7040C9433
:1000D000C3080C940000089520E030E008C00F929F
:1000E0000F900F920F900F920F902F5F3F4F281796
:1000F0003907A9F708950F931F93CF93DF938C01CE
:10010000C0E0D0E005C088EE93E00E946C0021962C
:10011000C017D107C1F7DF91CF911F910F910895BB
:10012000A29A84E690E00E946C00A298089588E26A
:1001300090E00E947B0088E388B90E94900088E2EA
:1001400090E00E946C008CE088B988E290E00E9408
:100150006C000E94900081E088B982E090E00E94EB
:100160007B000E94900086E088B90E94900008956C
:10017000A098A19888B90E9490000895A09AA1988B
:1001800088B90E9490000895A098A198662311F460
:10019000805803C0613011F4805488B90E949000E7
:1001A00008950F931F93CF93DF9300D0CDB7DEB7A1
:1001B00049835A830E94C4004981042F5A81152F14
:1001C00002C00E94BE00F80181918F018823C9F707
:1001D0000F900F90DF91CF911F910F910895CF93C2
:1001E000DF930F92CDB7DEB749830E94C4004981E7
:1001F000842F0E94BE000F90DF91CF9108959091BF
:10020000D80091609093D800833089F0843028F42E
:10021000813051F08230D1F411C0853061F08530E9
:1002200040F0863099F409C01092E20009C086E0DF
:1002300005C088E003C08EE001C082E18093E20047
:100240008CE08093E30087E38093E40080E0982FC4
:100250009295907F9093ED001092EF001092EE0037
:100260001092F3001092F2001092F1001092F00040
:100270001092F7001092F6001092F5001092F40020
:100280001092FA001092FA001092FA001092FA00FE
:100290001092FA001092FA001092FA001092FA00EE
:1002A0008F5F8F30A1F61092DB001092DF0010926A
:1002B000DE001092E1001092E0008091D800826090
:1002C0008093D8008091D90082FFFCCF089590914F
:1002D000D80091609093D8008330C1F0843028F426
:1002E000813051F0823039F50EC08530C9F085304B
:1002F00078F0863001F516C01092E20084E0809319
:10030000E30083E116C01092E2000FC082E00BC050
:1003100082E08093E2008EE08093E3008BE409C0EA
:1003200086E001C088E08093E2008CE08093E300E7
:1003300087E38093E40080E0982F9295907F9093DC
:10034000ED001092EF001092EE001092F300109268
:10035000F2001092F1001092F0001092F70010924B
:10036000F6001092F5001092F4001092FA0010922C
:10037000FA001092FA001092FA001092FA0010920D
:10038000FA001092FA001092FA008F5F8F30A1F6F7
:100390001092DB001092DF001092DE001092E1005C
:1003A0001092E00080E28093D8008091D8008260B3
:1003B0008093D8008091D90082FFFCCF08950F93DD
:1003C0001F93FB0100811181228133818295807FFF
:1003D0008093ED001092EE001092EF00858188234B
:1003E000A1F4D901C80153E0B695A79597958795D3
:1003F0005A95D1F78093F3000295000F007E009389
:10040000F2008091EF008F7E29C0D901C80155E12B
:10041000B695A795979587955A95D1F78093F30050
:10042000D901C8016DE0B695A795979587956A950E
:10043000D1F78093F200D901C80175E0B695A79570
:10044000979587957A95D1F78093F100000F000F6B
:10045000000F0093F0008091EF0080618093EF0027
:100460008091EF009681892B8093EF008091F000BE
:100470004470482B4093F0008091F0008D7F809372
:10048000F0008091F0008E7F8093F00080E009C042
:10049000DF01A80FB11D17969C9117979093FA0052
:1004A0008F5F96818917A0F38091EF00806480931D
:1004B000EF008091EE0086FFFCCF8091EE008F7BF5
:1004C0008093EE0081E01F910F910895CF92DF920B
:1004D000EF92FF920F931F93FB018295807F809391
:1004E000ED008091EE0085FFFCCF8091EF0084FD50
:1004F0001BC015828091F30090E0A0E0B0E0BA2F1D
:10050000A92F982F88274091F20050E060E070E01A
:10051000842B952BA62BB72B35E0B695A7959795F1
:1005200087953A95D1F735C081E085838091F300B6
:1005300090E0A0E0B0E0B82FAA2799278827C090C4
:10054000F2004091F1000091F000DD24EE24FF2440
:100550007601DD24CC248C299D29AE29BF2910E009
:1005600020E030E0802B912BA22BB32B50E060E0F9
:1005700070E0762F652F542F4427842B952BA62BC4
:10058000B72B689412F8B695A7959795879516940A
:10059000D1F780839183A283B3838091F00084702C
:1005A00084838091EF008F70868340E009C0809142
:1005B000FA002E0F3F1FD90117968C9317974F5FA4
:1005C000242F30E08091EF0090E08F70907028171A
:1005D00039076CF31092EE008091EF0080688093F1
:1005E000EF008091EE008F7D8093EE0081E01F91FF
:1005F0000F91FF90EF90DF90CF900895AF92CF9240
:10060000DF92EF92FF920F938295807F8093ED00AF
:100610001092EE00DB01CA01222329F5F3E0B69522
:10062000A79597958795FA95D1F78093F300429512
:10063000440F407E4093F200D701C60123E0B695F7
:10064000A795979587952A95D1F78093F700C2943F
:10065000CC0C30EEC322C092F6001092F4008091D0
:10066000EF008F7E4DC0E5E1B695A79597958795EC
:10067000EA95D1F78093F300DB01CA01FDE0B6955E
:10068000A79597958795FA95D1F78093F200DB01AE
:10069000CA0125E0B695A795979587952A95D1F734
:1006A0008093F100440F440F440F4093F000D701B2
:1006B000C60135E1B695A795979587953A95D1F7F7
:1006C0008093F700D701C6014DE0B695A7959795A1
:1006D00087954A95D1F78093F600D701C601E5E0EA
:1006E000B695A79597958795EA95D1F78093F500EC
:1006F000CC0CCC0CCC0CC092F4008091EF0080614B
:100700008093EF008091EF000F70082B0093EF00B3
:100710009091F4008A2D8770892B8093F40080914A
:10072000EF0080688093EF000F91FF90EF90DF90D3
:10073000CF90AF900895AF92CF92DF92EF92FF9259
:100740000F93382F8295807F8093ED001092EE00FA
:100750008091EF0021FF02C0806201C08F7D8093F5
:10076000EF00DB01CA0120FD25C023E0B695A79567
:10077000979587952A95D1F78093F3004295440F7A
:10078000407E4093F200D701C60143E0B695A7959D
:10079000979587954A95D1F78093F700C294CC0C32
:1007A00050EEC522C092F6001092F4008091EF0046
:1007B0008F7E4DC0E5E1B695A79597958795EA950B
:1007C000D1F78093F300DB01CA01FDE0B695A79550
:1007D00097958795FA95D1F78093F200DB01CA01CE
:1007E00025E0B695A795979587952A95D1F780939B
:1007F000F100440F440F440F4093F000D701C601AD
:1008000045E1B695A795979587954A95D1F7809339
:10081000F700D701C601EDE0B695A79597958795A6
:10082000EA95D1F78093F600D701C601F5E0B695B9
:10083000A79597958795FA95D1F78093F500CC0CFD
:10084000CC0CCC0CC092F4008091EF0080618093BE
:10085000EF008091EF000F70082B0093EF00909154
:10086000F4008A2D8770892B8093F4008091DB003F
:10087000806A8093DB00383050F481E090E002C061
:10088000880F991F3A95E2F78093DE000DC0232F61
:1008900030E02850304081E090E002C0880F991F7E
:1008A0002A95E2F78093DF008091EF0080688093C3
:1008B000EF0078940F91FF90EF90DF90CF90AF9082
:1008C000089580E480937C0080EF80BB8FE080936C
:1008D0007E0088EC80937A00089581E480937C0008
:1008E00080EF80BB8FE080937E0088EC80937A005D
:1008F00008951F920F920FB60F9211248F939F931A
:10090000809178009091790090933E0180933D0111
:1009100088EC80937A009F918F910F900FBE0F907B
:100920001F901895809154018823A9F480913D016E
:1009300090913E0190935A018093590164E170E0D7
:100940000E94D905709351016093500181E080931A
:10095000540180E415C08130B1F480913D01909143
:100960003E0190933A018093390164E670E00E9461
:10097000D9057093400160933F011092540181E4C6
:1009800080937C0008951092540108958FEF87B9E9
:1009900088B993B3976093BB8DB9089521E030E097
:1009A0008617970711F420E030E0C90108950E94EE
:1009B000C6040E9497000E946104789485E00E941A
:1009C000FF0081E041E050E060E070E021E008E0FD
:1009D000CC24CA94DC2C7601AA240E94FE02C2E137
:1009E000D1E000E011E0E2E0EE2EF12C0E94920452
:1009F00080913B0180930B0182E063E071E040E075
:100A00000E94DF0100D000D000D0EDB7FEB73196D4
:100A1000ADB7BEB71296DC93CE93119713830283C2
:100A200080913F0190914001958384830E94ED0560
:100A30008DB79EB706960FB6F8949EBF0FBE8DBFBA
:100A400080E060E042E151E00E94D10081E090E06E
:100A50000E947B0000D000D000D0EDB7FEB73196E9
:100A6000ADB7BEB71296DC93CE9311971383028372
:100A70008091500190915101958384830E94ED05EE
:100A80008DB79EB706960FB6F8949EBF0FBE8DBF6A
:100A900085E060E042E151E00E94D10081E090E019
:100AA0000E947B0000D000D000D0EDB7FEB7319699
:100AB000ADB7BEB71296DC93CE9311971383028322
:100AC0008091520190915301958384830E94ED059A
:100AD0008DB79EB706960FB6F8949EBF0FBE8DBF1A
:100AE00080E061E042E151E00E94D10081E090E0CD
:100AF0000E947B0000D000D000D0EDB7FEB7319649
:100B0000ADB7BEB71296DC93CE93119713830283D1
:100B10008091260190912701958384830E94ED05A1
:100B20008DB79EB706960FB6F8949EBF0FBE8DBFC9
:100B300085E061E042E151E00E94D10081E090E077
:100B40000E947B00809150019091510120915201AF
:100B5000309153012817390738F481E090E09093E1
:100B60003C0180933B0113C08217930760F480918E
:100B70003F01909140018830910528F4F0923C01AA
:100B8000E0923B0104C010923C0110923B0181E0D5
:100B900061E471E00E9466028091480180935201F5
:100BA00010925301809149018093260110922701F0
:100BB0001DCFAA1BBB1B51E107C0AA1FBB1FA61755
:100BC000B70710F0A61BB70B881F991F5A95A9F7F6
:100BD00080959095BC01CD0108950F931F93CF93FD
:100BE000DF93CDB7DEB72E970FB6F894DEBF0FBEFA
:100BF000CDBF0D891E8986E08C831A8309838FEF10
:100C00009FE79E838D83AE01475E5F4FCE010196C5
:100C10006F89788D0E941C06EF81F885E00FF11F27
:100C200010822E960FB6F894DEBF0FBECDBFDF91B7
:100C3000CF911F910F9108952F923F924F925F9203
:100C40006F927F928F929F92AF92BF92CF92DF92DC
:100C5000EF92FF920F931F93CF93DF93CDB7DEB741
:100C60002D970FB6F894DEBF0FBECDBF3C017D8738
:100C70006C875A01FC0117821682838181FFC8C1EB
:100C80002E010894411C511CF3019381EC85FD85D4
:100C900093FD859193FF8191FD87EC87882309F46B
:100CA000B3C1853241F493FD859193FF8191FD8716
:100CB000EC87853229F490E0B3010E943908E4CF33
:100CC000FF24EE2410E01032B0F48B3269F08C3245
:100CD00028F4803251F0833271F40BC08D3239F038
:100CE000803349F411602CC01260146029C0186070
:100CF00027C0106125C017FD2EC0282F20532A3091
:100D000098F416FF08C08F2D880FF82EFF0CFF0CEB
:100D1000F80EF20E15C08E2D880FE82EEE0CEE0C9C
:100D2000E80EE20E10620CC08E3221F416FD6CC18A
:100D3000106406C08C3611F4106802C0883659F46D
:100D4000EC85FD8593FD859193FF8191FD87EC876F
:100D5000882309F0B8CF982F9554933018F090520B
:100D6000933038F424E030E0A20EB31E3FE3398321
:100D70000FC0833631F0833781F0833509F05AC0D4
:100D800022C0F5018081898322E030E0A20EB31EEB
:100D900021E0C22ED12C420114C092E0292E312C28
:100DA0002A0C3B1CF5018080918016FF03C06F2D3B
:100DB00070E002C06FEF7FEFC4010E942E086C014B
:100DC00051011F7715C082E0282E312C2A0C3B1CC4
:100DD000F5018080918016FF03C06F2D70E002C086
:100DE0006FEF7FEFC4010E9423086C01106851016E
:100DF00013FD1CC006C080E290E0B3010E943908D8
:100E0000EA948E2D90E0C816D906A8F30FC0F4011D
:100E100017FD859117FF81914F0190E0B3010E946A
:100E20003908E110EA940894C108D108C114D1042A
:100E300071F7E7C0843611F0893651F5F50117FFD7
:100E400007C080819181A281B38124E030E008C095
:100E500080819181AA2797FDA095BA2F22E030E0EA
:100E6000A20EB31E012F0F76B7FF08C0B095A09554
:100E7000909581959F4FAF4FBF4F0068BC01CD014A
:100E8000A2012AE030E00E946508D82ED4183FC0A5
:100E9000853721F41F7E2AE030E020C0197F8F368D
:100EA000A9F0803720F4883509F0AEC00BC0803738
:100EB00021F0883709F0A8C001C0106114FF09C0F3
:100EC000146007C014FF08C0166006C028E030E0B8
:100ED00005C020E130E002C020E132E0F50117FF5B
:100EE00007C0608171818281938144E050E006C037
:100EF0006081718180E090E042E050E0A40EB51E78
:100F0000A2010E946508D82ED418012F0F7706FF82
:100F100009C00E7FDF1430F404FF06C002FD04C0D8
:100F20000F7E02C01D2D01C01F2D802F90E004FFF9
:100F30000CC0FE01ED0DF11D2081203311F4097E5E
:100F400009C002FF06C01E5F05C08678907000973A
:100F500009F01F5F802E992403FD12C000FF0DC011
:100F6000FD2C1E1550F4FE0CF11A1E2D06C080E259
:100F700090E0B3010E9439081F5F1E15C0F304C042
:100F80001E1510F4E11A01C0EE2484FE0FC080E3A8
:100F900090E0B3010E94390882FE1FC081FE03C0A9
:100FA00088E590E010C088E790E00DC0C401867825
:100FB0009070009791F081FC02C080E201C08BE24A
:100FC00007FD8DE290E0B3010E94390806C080E37E
:100FD00090E0B3010E943908FA94DF14C0F3DA9468
:100FE000F201ED0DF11D808190E0B3010E943908FE
:100FF000DD20A9F706C080E290E0B3010E94390825
:10100000EA94EE20C1F740CEF3018681978102C0B9
:101010008FEF9FEF2D960FB6F894DEBF0FBECDBFBA
:10102000DF91CF911F910F91FF90EF90DF90CF90C4
:10103000BF90AF909F908F907F906F905F904F90F8
:101040003F902F900895FC01059061507040011071
:10105000D8F7809590958E0F9F1F0895FC016150E1
:10106000704001900110D8F7809590958E0F9F1FCA
:1010700008950F931F93CF93DF938C01EB018B8126
:1010800081FF1BC082FF0DC02E813F818C819D811D
:101090002817390764F4E881F9810193F983E8831B
:1010A00006C0E885F985802F0995009731F48E8177
:1010B0009F8101969F838E8302C00FEF1FEFC801AF
:1010C000DF91CF911F910F910895FA01AA2728303F
:1010D00051F1203181F1E8946F936E7F6E5F7F4F05
:1010E0008F4F9F4FAF4FB1E03ED0B4E03CD0670F81
:1010F000781F891F9A1FA11D680F791F8A1F911DD4
:10110000A11D6A0F711D811D911DA11D20D009F423
:1011100068943F912AE0269F11243019305D319365
:10112000DEF6CF010895462F4770405D4193B3E04E
:101130000FD0C9F7F6CF462F4F70405D4A3318F0F5
:10114000495D31FD4052419302D0A9F7EACFB4E0A6
:10115000A6959795879577956795BA95C9F700975E
:101160006105710508959B01AC010A2E06945795FF
:10117000479537952795BA95C9F7620F731F841F56
:0A118000951FA01D0895F894FFCFFD
:10118A0025640002000000000108000000000000C1
:02119A00000053
:00000001FF
